:020000040800F2
:1000000068060020890100086904000873030008DD
:10001000770300083B0200081908000800000000F0
:10002000000000000000000000000000C9060008F9
:100030003F02000800000000A5060008B507000800
:10004000A3010008A3010008A3010008A301000800
:10005000A3010008A3010008A3010008A3010008F0
:10006000A3010008A3010008A3010008A3010008E0
:10007000A3010008A3010008A3010008A3010008D0
:10008000A3010008A3010008A3010008A3010008C0
:10009000A3010008A3010008A3010008A3010008B0
:1000A000A3010008A3010008A3010008A3010008A0
:1000B000A3010008A3010008A3010008A301000890
:1000C000A3010008A3010008A3010008A301000880
:1000D000A3010008A3010008A3010008A301000870
:1000E000A3010008A3010008A301000800F002F822
:1000F00000F03AF80AA090E8000C82448344AAF188
:100100000107DA4501D100F02FF8AFF2090EBAE885
:100110000F0013F0010F18BFFB1A43F0010318473B
:100120005807000078070000103A24BF78C878C14B
:10013000FAD8520724BF30C830C144BF04680C60ED
:10014000704700000023002400250026103A28BF35
:1001500078C1FBD8520728BF30C148BF0B60704739
:100160001FB51FBD10B510BD00F031F81146FFF7E7
:10017000F7FF00F073FB00F04FF803B4FFF7F2FF56
:1001800003BC00F053F800000948804709480047C5
:10019000FEE7FEE7FEE7FEE7FEE7FEE7FEE7FEE737
:1001A000FEE7FEE704480549054A064B7047000094
:1001B000B9070008ED00000868000020680600206C
:1001C000680200206802002070477047704775463B
:1001D00000F028F8AE4605006946534620F00700B7
:1001E000854618B020B5FFF7DDFFBDE820404FF091
:1001F00000064FF000074FF000084FF0000B21F011
:100200000701AC46ACE8C009ACE8C009ACE8C009DD
:10021000ACE8C0098D4670470446AFF30080204625
:10022000FFF7ABFF00487047080000200149182085
:10023000ABBEFEE726000200704700BFFEE7704736
:100240002DE9F0410246002500260020002300246D
:10025000002791F803C00CF00F0591F803C00CF0D3
:10026000100CBCF1000F03D091F802C04CEA050558
:1002700091F800C0BCF1000F31D0146800202BE0D1
:100280004FF0010C0CFA00F3B1F800C00CEA0306C1
:100290009E4220D183004FF00F0C0CFA03F7BC43B1
:1002A00005FA03FC4CEA040491F803C0BCF1280FE2
:1002B00006D14FF0010C0CFA00FCC2F814C00AE0A1
:1002C00091F803C0BCF1480F05D14FF0010C0CFAB6
:1002D00000FCC2F810C0401C0828D1D31460B1F84B
:1002E00000C0BCF1FF0F34DD546800202EE000F1A7
:1002F000080C4FF0010808FA0CF3B1F800C00CEA42
:1003000003069E4221D183004FF00F0C0CFA03F735
:10031000BC4305FA03FC4CEA040491F803C0BCF1A9
:10032000280F05D100F1080C08FA0CF8C2F8148067
:1003300091F803C0BCF1480F07D100F1080C4FF051
:10034000010808FA0CF8C2F81080401C0828CED327
:100350005460BDE8F0810246002093680B400BB169
:10036000012000E0002070470AB1016100E0416116
:10037000704700BFFEE700BFFEE7000008B501219F
:10038000042000F091F910208DF80300B020ADF8A2
:10039000000003208DF8020069460B48FFF750FF6C
:1003A00048208DF803004020ADF8000003208DF8B0
:1003B000020069460448FFF743FF012000F04AF8B5
:1003C000002000F03DF808BD0008014010B54021B4
:1003D0000148FFF7C0FF10BD0008014010B5002024
:1003E00000F038F810BD10B5012000F033F810BD52
:1003F00070B50546002414E08021214101EA050082
:1004000000F014F8012000F01BF8FFF7DFFF0128CF
:1004100002D1802020410643002000F011F8601C2A
:10042000C4B2082CE8DB304670BD000010B50446AD
:10043000224680210148FFF797FF10BD00080140C8
:1004400010B50446224620210148FFF78DFF10BD5C
:100450000008014010B50446224610210148FFF76C
:1004600083FF10BD00080140704770B500240EE006
:100470000021204600F0E5F8002504E0002000F00F
:1004800001F9681CC5B2802DF8DB601CC4B2082CD1
:10049000EEDB70BD08B50121082000F005F914203D
:1004A0008DF8030003208DF802004FF48070ADF842
:1004B000000069460A48FFF7C3FE4FF40070ADF82C
:1004C000000069460648FFF7BBFE012211020448FE
:1004D000FFF74AFF012251020148FFF745FF08BD1F
:1004E000000C014070B50546002415E08020204135
:1004F00000EA05024FF400710E48FFF735FF0122B4
:1005000011020C48FFF730FF00224FF480710948B8
:10051000FFF72AFF601CC4B2082CE7DB012211029E
:100520000448FFF721FF00224FF480710148FFF7D4
:100530001BFF70BD000C014010B5012251020A489A
:10054000FFF712FF012211020748FFF70DFF0022FB
:100550004FF400710448FFF707FF00224FF4807149
:100560000148FFF701FF10BD000C014010B500224B
:100570004FF400710648FFF7F7FE0122110204480C
:10058000FFF7F2FE012251020148FFF7EDFE10BD18
:10059000000C014070B5002406E0002500E06D1C51
:1005A000B5F57A7FFBD3641CB4F57A7FF5D3FFF7FA
:1005B00071FFAE2000F056F8D52000F053F88020EF
:1005C00000F050F8A82000F04DF83F2000F04AF865
:1005D000D32000F047F8002000F044F8402000F05D
:1005E00041F8A12000F03EF8C82000F03BF8DA20E6
:1005F00000F038F8122000F035F8812000F032F8D1
:10060000CF2000F02FF8D92000F02CF8F12000F0D6
:1006100029F8DB2000F026F8302000F023F8A42091
:1006200000F020F8A62000F01DF88D2000F01AF848
:10063000142000F017F8AF2000F014F8FFF715FFB2
:1006400070BD70B505460C4645F0B00000F00AF8E4
:10065000102141EA141000F005F804F00F0000F03A
:1006600001F870BD10B50446FFF766FF7820FFF76C
:1006700039FF0020FFF736FF2046FFF733FFFFF773
:1006800075FF10BD10B50446FFF756FF7820FFF741
:1006900029FF4020FFF726FF2046FFF723FFFFF743
:1006A00065FF10BD7047000029B1064A92690243F8
:1006B000044B9A6104E0034A92698243014B9A61B8
:1006C0007047000000100240704710B500F002F8BB
:1006D00010BD00000CB50020019000903348006868
:1006E00040F480303149086000BF3048006800F4B1
:1006F000003000900198401C0190009818B90198B2
:10070000B0F5A06FF1D12948006800F4003010B1B5
:100710000120009001E0002000900098012843D1C2
:100720002348006840F0100021490860084600682E
:1007300020F0030008600846006840F002000860EE
:100740001A484068194948600846406848600846A9
:10075000406840F4806048600846406820F47C109F
:1007600048600846406840F4E81048600846006861
:1007700040F08070086000BF0C48006800F0007016
:100780000028F9D00948406820F003000749486074
:100790000846406840F00200486000BF03484068D7
:1007A00000F00C000828F9D10CBD00000010024038
:1007B000002002407047000010B51348006840F068
:1007C00001001149086008464068104908400E4978
:1007D0004860084600680E4908400B490860084612
:1007E000006820F4802008600846406820F4FE007D
:1007F00048604FF41F008860FFF767FF4FF000600C
:100800000449086010BD0000001002400000FFF81D
:10081000FFFFF6FE08ED00E000BFFEE710B5FFF7B2
:10082000ADFD10BD70B505460C46FFF7D7FD9F2006
:10083000FFF7DEFDFF20FFF7DBFD2870FF20FFF74D
:10084000D7FD2060206800022060FF20FFF7D0FD68
:10085000216808432060FFF7C6FD70BDFFF79AFED0
:10086000FFF7DCFF02490348FFF7DCFF00BFFEE7AC
:10087000040000200000002098080008000000206C
:100880000800000028010008A00800080800002057
:1008900060060000440100080000000000000000A5
:04000005080000ED02
:00000001FF
